{
  "_format": "hh-sol-artifact-1",
  "contractName": "CredentialRegistry",
  "sourceName": "contracts/CredentialRegistry-2.sol",
  "abi": [
    {
      "inputs": [
        {
          "internalType": "address",
          "name": "initialValidator",
          "type": "address"
        }
      ],
      "stateMutability": "nonpayable",
      "type": "constructor"
    },
    {
      "anonymous": false,
      "inputs": [
        {
          "indexed": true,
          "internalType": "uint256",
          "name": "tokenId",
          "type": "uint256"
        },
        {
          "indexed": false,
          "internalType": "string",
          "name": "issuerID",
          "type": "string"
        },
        {
          "indexed": false,
          "internalType": "bytes32",
          "name": "metaHash",
          "type": "bytes32"
        },
        {
          "indexed": false,
          "internalType": "uint256",
          "name": "expiry",
          "type": "uint256"
        }
      ],
      "name": "CredentialRegistered",
      "type": "event"
    },
    {
      "anonymous": false,
      "inputs": [
        {
          "indexed": true,
          "internalType": "address",
          "name": "previousOwner",
          "type": "address"
        },
        {
          "indexed": true,
          "internalType": "address",
          "name": "newOwner",
          "type": "address"
        }
      ],
      "name": "OwnershipTransferred",
      "type": "event"
    },
    {
      "anonymous": false,
      "inputs": [
        {
          "indexed": true,
          "internalType": "address",
          "name": "oldValidator",
          "type": "address"
        },
        {
          "indexed": true,
          "internalType": "address",
          "name": "newValidator",
          "type": "address"
        }
      ],
      "name": "ValidatorUpdated",
      "type": "event"
    },
    {
      "inputs": [
        {
          "internalType": "string",
          "name": "issuerID",
          "type": "string"
        },
        {
          "internalType": "string",
          "name": "subjectID",
          "type": "string"
        },
        {
          "internalType": "string",
          "name": "credType",
          "type": "string"
        },
        {
          "internalType": "uint256",
          "name": "issueDate",
          "type": "uint256"
        },
        {
          "internalType": "uint256",
          "name": "expiry",
          "type": "uint256"
        }
      ],
      "name": "attest",
      "outputs": [
        {
          "internalType": "uint256",
          "name": "tokenId",
          "type": "uint256"
        }
      ],
      "stateMutability": "nonpayable",
      "type": "function"
    },
    {
      "inputs": [],
      "name": "currentTokenCounter",
      "outputs": [
        {
          "internalType": "uint256",
          "name": "",
          "type": "uint256"
        }
      ],
      "stateMutability": "view",
      "type": "function"
    },
    {
      "inputs": [
        {
          "internalType": "uint256",
          "name": "tokenId",
          "type": "uint256"
        }
      ],
      "name": "getCredentialInfo",
      "outputs": [
        {
          "internalType": "bool",
          "name": "found",
          "type": "bool"
        },
        {
          "internalType": "string",
          "name": "issuerID",
          "type": "string"
        },
        {
          "internalType": "bytes32",
          "name": "metaHash",
          "type": "bytes32"
        },
        {
          "internalType": "uint256",
          "name": "expiry",
          "type": "uint256"
        }
      ],
      "stateMutability": "view",
      "type": "function"
    },
    {
      "inputs": [],
      "name": "owner",
      "outputs": [
        {
          "internalType": "address",
          "name": "",
          "type": "address"
        }
      ],
      "stateMutability": "view",
      "type": "function"
    },
    {
      "inputs": [],
      "name": "renounceOwnership",
      "outputs": [],
      "stateMutability": "nonpayable",
      "type": "function"
    },
    {
      "inputs": [
        {
          "internalType": "address",
          "name": "newValidator",
          "type": "address"
        }
      ],
      "name": "setValidator",
      "outputs": [],
      "stateMutability": "nonpayable",
      "type": "function"
    },
    {
      "inputs": [
        {
          "internalType": "address",
          "name": "newOwner",
          "type": "address"
        }
      ],
      "name": "transferOwnership",
      "outputs": [],
      "stateMutability": "nonpayable",
      "type": "function"
    },
    {
      "inputs": [],
      "name": "validator",
      "outputs": [
        {
          "internalType": "address",
          "name": "",
          "type": "address"
        }
      ],
      "stateMutability": "view",
      "type": "function"
    }
  ],
  "bytecode": "0x608060405234801561001057600080fd5b5060405161162638038061162683398181016040528101906100329190610233565b61004e61004361010460201b60201c565b61010c60201b60201c565b600073ffffffffffffffffffffffffffffffffffffffff168173ffffffffffffffffffffffffffffffffffffffff16036100bd576040517f08c379a00000000000000000000000000000000000000000000000000000000081526004016100b4906102bd565b60405180910390fd5b80600360006101000a81548173ffffffffffffffffffffffffffffffffffffffff021916908373ffffffffffffffffffffffffffffffffffffffff160217905550506102dd565b600033905090565b60008060009054906101000a900473ffffffffffffffffffffffffffffffffffffffff169050816000806101000a81548173ffffffffffffffffffffffffffffffffffffffff021916908373ffffffffffffffffffffffffffffffffffffffff1602179055508173ffffffffffffffffffffffffffffffffffffffff168173ffffffffffffffffffffffffffffffffffffffff167f8be0079c531659141344cd1fd0a4f28419497f9722a3daafe3b4186f6b6457e060405160405180910390a35050565b600080fd5b600073ffffffffffffffffffffffffffffffffffffffff82169050919050565b6000610200826101d5565b9050919050565b610210816101f5565b811461021b57600080fd5b50565b60008151905061022d81610207565b92915050565b600060208284031215610249576102486101d0565b5b60006102578482850161021e565b91505092915050565b600082825260208201905092915050565b7f5a65726f2076616c696461746f72000000000000000000000000000000000000600082015250565b60006102a7600e83610260565b91506102b282610271565b602082019050919050565b600060208201905081810360008301526102d68161029a565b9050919050565b61133a806102ec6000396000f3fe608060405234801561001057600080fd5b50600436106100885760003560e01c8063841404a31161005b578063841404a3146100ef5780638da5cb5b1461011f578063ddc7e7091461013d578063f2fde38b1461017057610088565b80631327d3d81461008d5780633a5381b5146100a9578063449e59ee146100c7578063715018a6146100e5575b600080fd5b6100a760048036038101906100a291906108f4565b61018c565b005b6100b16102c9565b6040516100be9190610930565b60405180910390f35b6100cf6102ef565b6040516100dc9190610964565b60405180910390f35b6100ed6102f9565b005b61010960048036038101906101049190610a10565b61030d565b6040516101169190610964565b60405180910390f35b61012761056f565b6040516101349190610930565b60405180910390f35b61015760048036038101906101529190610aec565b610598565b6040516101679493929190610bdd565b60405180910390f35b61018a600480360381019061018591906108f4565b6106bf565b005b610194610742565b600073ffffffffffffffffffffffffffffffffffffffff168173ffffffffffffffffffffffffffffffffffffffff1603610203576040517f08c379a00000000000000000000000000000000000000000000000000000000081526004016101fa90610c75565b60405180910390fd5b6000600360009054906101000a900473ffffffffffffffffffffffffffffffffffffffff16905081600360006101000a81548173ffffffffffffffffffffffffffffffffffffffff021916908373ffffffffffffffffffffffffffffffffffffffff1602179055508173ffffffffffffffffffffffffffffffffffffffff168173ffffffffffffffffffffffffffffffffffffffff167fcfac5dc75b8d9a7e074162f59d9adcd33da59f0fe8dfb21580db298fc0fdad0d60405160405180910390a35050565b600360009054906101000a900473ffffffffffffffffffffffffffffffffffffffff1681565b6000600254905090565b610301610742565b61030b60006107c0565b565b6000600360009054906101000a900473ffffffffffffffffffffffffffffffffffffffff1673ffffffffffffffffffffffffffffffffffffffff163373ffffffffffffffffffffffffffffffffffffffff161461039f576040517f08c379a000000000000000000000000000000000000000000000000000000000815260040161039690610ce1565b60405180910390fd5b6000808a8a905014806103b55750600088889050145b806103c35750600086869050145b905060008085149050600080851180156103dd5750428511155b9050821580156103eb575081155b80156103f5575080155b610434576040517f08c379a000000000000000000000000000000000000000000000000000000000815260040161042b90610d4d565b60405180910390fd5b60026000815461044390610d9c565b919050819055935060008c8c8c8c8c8c8c60405160200161046a9796959493929190610e44565b60405160208183030381529060405280519060200120905060405180606001604052808e8e8080601f016020809104026020016040519081016040528093929190818152602001838380828437600081840152601f19601f8201169050808301925050505050505081526020018281526020018781525060016000878152602001908152602001600020600082015181600001908161050991906110c7565b506020820151816001015560408201518160020155905050847f9bb6d1cc25ee1fa671dae2ed97e61b3628515344f75001e89779a037429bbbbb8e8e848a60405161055794939291906111c6565b60405180910390a25050505098975050505050505050565b60008060009054906101000a900473ffffffffffffffffffffffffffffffffffffffff16905090565b600060606000806000600160008781526020019081526020016000206040518060600160405290816000820180546105cf90610eea565b80601f01602080910402602001604051908101604052809291908181526020018280546105fb90610eea565b80156106485780601f1061061d57610100808354040283529160200191610648565b820191906000526020600020905b81548152906001019060200180831161062b57829003601f168201915b505050505081526020016001820154815260200160028201548152505090506000801b81602001510361069d5760008060001b60006040518060200160405280600081525091909450945094509450506106b8565b60018160000151826020015183604001519450945094509450505b9193509193565b6106c7610742565b600073ffffffffffffffffffffffffffffffffffffffff168173ffffffffffffffffffffffffffffffffffffffff1603610736576040517f08c379a000000000000000000000000000000000000000000000000000000000815260040161072d90611278565b60405180910390fd5b61073f816107c0565b50565b61074a610884565b73ffffffffffffffffffffffffffffffffffffffff1661076861056f565b73ffffffffffffffffffffffffffffffffffffffff16146107be576040517f08c379a00000000000000000000000000000000000000000000000000000000081526004016107b5906112e4565b60405180910390fd5b565b60008060009054906101000a900473ffffffffffffffffffffffffffffffffffffffff169050816000806101000a81548173ffffffffffffffffffffffffffffffffffffffff021916908373ffffffffffffffffffffffffffffffffffffffff1602179055508173ffffffffffffffffffffffffffffffffffffffff168173ffffffffffffffffffffffffffffffffffffffff167f8be0079c531659141344cd1fd0a4f28419497f9722a3daafe3b4186f6b6457e060405160405180910390a35050565b600033905090565b600080fd5b600080fd5b600073ffffffffffffffffffffffffffffffffffffffff82169050919050565b60006108c182610896565b9050919050565b6108d1816108b6565b81146108dc57600080fd5b50565b6000813590506108ee816108c8565b92915050565b60006020828403121561090a5761090961088c565b5b6000610918848285016108df565b91505092915050565b61092a816108b6565b82525050565b60006020820190506109456000830184610921565b92915050565b6000819050919050565b61095e8161094b565b82525050565b60006020820190506109796000830184610955565b92915050565b600080fd5b600080fd5b600080fd5b60008083601f8401126109a4576109a361097f565b5b8235905067ffffffffffffffff8111156109c1576109c0610984565b5b6020830191508360018202830111156109dd576109dc610989565b5b9250929050565b6109ed8161094b565b81146109f857600080fd5b50565b600081359050610a0a816109e4565b92915050565b60008060008060008060008060a0898b031215610a3057610a2f61088c565b5b600089013567ffffffffffffffff811115610a4e57610a4d610891565b5b610a5a8b828c0161098e565b9850985050602089013567ffffffffffffffff811115610a7d57610a7c610891565b5b610a898b828c0161098e565b9650965050604089013567ffffffffffffffff811115610aac57610aab610891565b5b610ab88b828c0161098e565b94509450506060610acb8b828c016109fb565b9250506080610adc8b828c016109fb565b9150509295985092959890939650565b600060208284031215610b0257610b0161088c565b5b6000610b10848285016109fb565b91505092915050565b60008115159050919050565b610b2e81610b19565b82525050565b600081519050919050565b600082825260208201905092915050565b60005b83811015610b6e578082015181840152602081019050610b53565b60008484015250505050565b6000601f19601f8301169050919050565b6000610b9682610b34565b610ba08185610b3f565b9350610bb0818560208601610b50565b610bb981610b7a565b840191505092915050565b6000819050919050565b610bd781610bc4565b82525050565b6000608082019050610bf26000830187610b25565b8181036020830152610c048186610b8b565b9050610c136040830185610bce565b610c206060830184610955565b95945050505050565b7f5a65726f2076616c696461746f72000000000000000000000000000000000000600082015250565b6000610c5f600e83610b3f565b9150610c6a82610c29565b602082019050919050565b60006020820190508181036000830152610c8e81610c52565b9050919050565b7f4e6f742076616c696461746f7200000000000000000000000000000000000000600082015250565b6000610ccb600d83610b3f565b9150610cd682610c95565b602082019050919050565b60006020820190508181036000830152610cfa81610cbe565b9050919050565b7f496e76616c6964206d6574616461746100000000000000000000000000000000600082015250565b6000610d37601083610b3f565b9150610d4282610d01565b602082019050919050565b60006020820190508181036000830152610d6681610d2a565b9050919050565b7f4e487b7100000000000000000000000000000000000000000000000000000000600052601160045260246000fd5b6000610da78261094b565b91507fffffffffffffffffffffffffffffffffffffffffffffffffffffffffffffffff8203610dd957610dd8610d6d565b5b600182019050919050565b600081905092915050565b82818337600083830152505050565b6000610e0a8385610de4565b9350610e17838584610def565b82840190509392505050565b6000819050919050565b610e3e610e398261094b565b610e23565b82525050565b6000610e5182898b610dfe565b9150610e5e828789610dfe565b9150610e6b828587610dfe565b9150610e778284610e2d565b60208201915081905098975050505050505050565b7f4e487b7100000000000000000000000000000000000000000000000000000000600052604160045260246000fd5b7f4e487b7100000000000000000000000000000000000000000000000000000000600052602260045260246000fd5b60006002820490506001821680610f0257607f821691505b602082108103610f1557610f14610ebb565b5b50919050565b60008190508160005260206000209050919050565b60006020601f8301049050919050565b600082821b905092915050565b600060088302610f7d7fffffffffffffffffffffffffffffffffffffffffffffffffffffffffffffffff82610f40565b610f878683610f40565b95508019841693508086168417925050509392505050565b6000819050919050565b6000610fc4610fbf610fba8461094b565b610f9f565b61094b565b9050919050565b6000819050919050565b610fde83610fa9565b610ff2610fea82610fcb565b848454610f4d565b825550505050565b600090565b611007610ffa565b611012818484610fd5565b505050565b5b818110156110365761102b600082610fff565b600181019050611018565b5050565b601f82111561107b5761104c81610f1b565b61105584610f30565b81016020851015611064578190505b61107861107085610f30565b830182611017565b50505b505050565b600082821c905092915050565b600061109e60001984600802611080565b1980831691505092915050565b60006110b7838361108d565b9150826002028217905092915050565b6110d082610b34565b67ffffffffffffffff8111156110e9576110e8610e8c565b5b6110f38254610eea565b6110fe82828561103a565b600060209050601f831160018114611131576000841561111f578287015190505b61112985826110ab565b865550611191565b601f19841661113f86610f1b565b60005b8281101561116757848901518255600182019150602085019450602081019050611142565b868310156111845784890151611180601f89168261108d565b8355505b6001600288020188555050505b505050505050565b60006111a58385610b3f565b93506111b2838584610def565b6111bb83610b7a565b840190509392505050565b600060608201905081810360008301526111e1818688611199565b90506111f06020830185610bce565b6111fd6040830184610955565b95945050505050565b7f4f776e61626c653a206e6577206f776e657220697320746865207a65726f206160008201527f6464726573730000000000000000000000000000000000000000000000000000602082015250565b6000611262602683610b3f565b915061126d82611206565b604082019050919050565b6000602082019050818103600083015261129181611255565b9050919050565b7f4f776e61626c653a2063616c6c6572206973206e6f7420746865206f776e6572600082015250565b60006112ce602083610b3f565b91506112d982611298565b602082019050919050565b600060208201905081810360008301526112fd816112c1565b905091905056fea2646970667358221220fcc796326e02a60628d74c0b607c98ebbf26f909e6c80839a6ba09cc0e473fca64736f6c634300081c0033",
  "linkReferences": {},
  "deployedLinkReferences": {}
}