{
  "_format": "hh-sol-artifact-1",
  "contractName": "CredentialSBT",
  "sourceName": "contracts/CredentialSBT.sol",
  "abi": [
    {
      "inputs": [
        {
          "internalType": "address",
          "name": "registryAddress",
          "type": "address"
        },
        {
          "internalType": "string",
          "name": "name_",
          "type": "string"
        },
        {
          "internalType": "string",
          "name": "symbol_",
          "type": "string"
        }
      ],
      "stateMutability": "nonpayable",
      "type": "constructor"
    },
    {
      "anonymous": false,
      "inputs": [
        {
          "indexed": true,
          "internalType": "address",
          "name": "owner",
          "type": "address"
        },
        {
          "indexed": true,
          "internalType": "address",
          "name": "approved",
          "type": "address"
        },
        {
          "indexed": true,
          "internalType": "uint256",
          "name": "tokenId",
          "type": "uint256"
        }
      ],
      "name": "Approval",
      "type": "event"
    },
    {
      "anonymous": false,
      "inputs": [
        {
          "indexed": true,
          "internalType": "address",
          "name": "owner",
          "type": "address"
        },
        {
          "indexed": true,
          "internalType": "address",
          "name": "operator",
          "type": "address"
        },
        {
          "indexed": false,
          "internalType": "bool",
          "name": "approved",
          "type": "bool"
        }
      ],
      "name": "ApprovalForAll",
      "type": "event"
    },
    {
      "anonymous": false,
      "inputs": [
        {
          "indexed": true,
          "internalType": "address",
          "name": "to",
          "type": "address"
        },
        {
          "indexed": true,
          "internalType": "uint256",
          "name": "tokenId",
          "type": "uint256"
        },
        {
          "indexed": false,
          "internalType": "bytes32",
          "name": "metaHash",
          "type": "bytes32"
        },
        {
          "indexed": false,
          "internalType": "uint256",
          "name": "expiry",
          "type": "uint256"
        }
      ],
      "name": "MintedSBT",
      "type": "event"
    },
    {
      "anonymous": false,
      "inputs": [
        {
          "indexed": true,
          "internalType": "address",
          "name": "previousOwner",
          "type": "address"
        },
        {
          "indexed": true,
          "internalType": "address",
          "name": "newOwner",
          "type": "address"
        }
      ],
      "name": "OwnershipTransferred",
      "type": "event"
    },
    {
      "anonymous": false,
      "inputs": [
        {
          "indexed": true,
          "internalType": "address",
          "name": "from",
          "type": "address"
        },
        {
          "indexed": true,
          "internalType": "address",
          "name": "to",
          "type": "address"
        },
        {
          "indexed": true,
          "internalType": "uint256",
          "name": "tokenId",
          "type": "uint256"
        }
      ],
      "name": "Transfer",
      "type": "event"
    },
    {
      "inputs": [
        {
          "internalType": "address",
          "name": "",
          "type": "address"
        },
        {
          "internalType": "uint256",
          "name": "",
          "type": "uint256"
        }
      ],
      "name": "approve",
      "outputs": [],
      "stateMutability": "nonpayable",
      "type": "function"
    },
    {
      "inputs": [
        {
          "internalType": "address",
          "name": "owner",
          "type": "address"
        }
      ],
      "name": "balanceOf",
      "outputs": [
        {
          "internalType": "uint256",
          "name": "",
          "type": "uint256"
        }
      ],
      "stateMutability": "view",
      "type": "function"
    },
    {
      "inputs": [
        {
          "internalType": "uint256",
          "name": "tokenId",
          "type": "uint256"
        }
      ],
      "name": "getApproved",
      "outputs": [
        {
          "internalType": "address",
          "name": "",
          "type": "address"
        }
      ],
      "stateMutability": "view",
      "type": "function"
    },
    {
      "inputs": [
        {
          "internalType": "address",
          "name": "owner",
          "type": "address"
        },
        {
          "internalType": "address",
          "name": "operator",
          "type": "address"
        }
      ],
      "name": "isApprovedForAll",
      "outputs": [
        {
          "internalType": "bool",
          "name": "",
          "type": "bool"
        }
      ],
      "stateMutability": "view",
      "type": "function"
    },
    {
      "inputs": [
        {
          "internalType": "uint256",
          "name": "tokenId",
          "type": "uint256"
        },
        {
          "internalType": "address",
          "name": "candidateWallet",
          "type": "address"
        },
        {
          "internalType": "bytes32",
          "name": "metaHash",
          "type": "bytes32"
        },
        {
          "internalType": "uint256",
          "name": "expiry",
          "type": "uint256"
        }
      ],
      "name": "mintSBT",
      "outputs": [],
      "stateMutability": "nonpayable",
      "type": "function"
    },
    {
      "inputs": [
        {
          "internalType": "uint256",
          "name": "",
          "type": "uint256"
        }
      ],
      "name": "minted",
      "outputs": [
        {
          "internalType": "bool",
          "name": "",
          "type": "bool"
        }
      ],
      "stateMutability": "view",
      "type": "function"
    },
    {
      "inputs": [],
      "name": "name",
      "outputs": [
        {
          "internalType": "string",
          "name": "",
          "type": "string"
        }
      ],
      "stateMutability": "view",
      "type": "function"
    },
    {
      "inputs": [],
      "name": "owner",
      "outputs": [
        {
          "internalType": "address",
          "name": "",
          "type": "address"
        }
      ],
      "stateMutability": "view",
      "type": "function"
    },
    {
      "inputs": [
        {
          "internalType": "uint256",
          "name": "tokenId",
          "type": "uint256"
        }
      ],
      "name": "ownerOf",
      "outputs": [
        {
          "internalType": "address",
          "name": "",
          "type": "address"
        }
      ],
      "stateMutability": "view",
      "type": "function"
    },
    {
      "inputs": [],
      "name": "registry",
      "outputs": [
        {
          "internalType": "contract ICredentialRegistry",
          "name": "",
          "type": "address"
        }
      ],
      "stateMutability": "view",
      "type": "function"
    },
    {
      "inputs": [],
      "name": "renounceOwnership",
      "outputs": [],
      "stateMutability": "nonpayable",
      "type": "function"
    },
    {
      "inputs": [
        {
          "internalType": "address",
          "name": "",
          "type": "address"
        },
        {
          "internalType": "address",
          "name": "",
          "type": "address"
        },
        {
          "internalType": "uint256",
          "name": "",
          "type": "uint256"
        }
      ],
      "name": "safeTransferFrom",
      "outputs": [],
      "stateMutability": "nonpayable",
      "type": "function"
    },
    {
      "inputs": [
        {
          "internalType": "address",
          "name": "",
          "type": "address"
        },
        {
          "internalType": "address",
          "name": "",
          "type": "address"
        },
        {
          "internalType": "uint256",
          "name": "",
          "type": "uint256"
        },
        {
          "internalType": "bytes",
          "name": "",
          "type": "bytes"
        }
      ],
      "name": "safeTransferFrom",
      "outputs": [],
      "stateMutability": "nonpayable",
      "type": "function"
    },
    {
      "inputs": [
        {
          "internalType": "address",
          "name": "",
          "type": "address"
        },
        {
          "internalType": "bool",
          "name": "",
          "type": "bool"
        }
      ],
      "name": "setApprovalForAll",
      "outputs": [],
      "stateMutability": "nonpayable",
      "type": "function"
    },
    {
      "inputs": [
        {
          "internalType": "address",
          "name": "newRegistry",
          "type": "address"
        }
      ],
      "name": "setRegistry",
      "outputs": [],
      "stateMutability": "nonpayable",
      "type": "function"
    },
    {
      "inputs": [
        {
          "internalType": "bytes4",
          "name": "interfaceId",
          "type": "bytes4"
        }
      ],
      "name": "supportsInterface",
      "outputs": [
        {
          "internalType": "bool",
          "name": "",
          "type": "bool"
        }
      ],
      "stateMutability": "view",
      "type": "function"
    },
    {
      "inputs": [],
      "name": "symbol",
      "outputs": [
        {
          "internalType": "string",
          "name": "",
          "type": "string"
        }
      ],
      "stateMutability": "view",
      "type": "function"
    },
    {
      "inputs": [
        {
          "internalType": "uint256",
          "name": "tokenId",
          "type": "uint256"
        }
      ],
      "name": "tokenURI",
      "outputs": [
        {
          "internalType": "string",
          "name": "",
          "type": "string"
        }
      ],
      "stateMutability": "view",
      "type": "function"
    },
    {
      "inputs": [
        {
          "internalType": "address",
          "name": "",
          "type": "address"
        },
        {
          "internalType": "address",
          "name": "",
          "type": "address"
        },
        {
          "internalType": "uint256",
          "name": "",
          "type": "uint256"
        }
      ],
      "name": "transferFrom",
      "outputs": [],
      "stateMutability": "nonpayable",
      "type": "function"
    },
    {
      "inputs": [
        {
          "internalType": "address",
          "name": "newOwner",
          "type": "address"
        }
      ],
      "name": "transferOwnership",
      "outputs": [],
      "stateMutability": "nonpayable",
      "type": "function"
    }
  ],
  "bytecode": "0x608060405234801561001057600080fd5b506040516131ef3803806131ef833981810160405281019061003291906103cb565b818181600090816100439190610677565b5080600190816100539190610677565b50505061007261006761012a60201b60201c565b61013260201b60201c565b600073ffffffffffffffffffffffffffffffffffffffff168373ffffffffffffffffffffffffffffffffffffffff16036100e1576040517f08c379a00000000000000000000000000000000000000000000000000000000081526004016100d8906107a6565b60405180910390fd5b82600760006101000a81548173ffffffffffffffffffffffffffffffffffffffff021916908373ffffffffffffffffffffffffffffffffffffffff1602179055505050506107c6565b600033905090565b6000600660009054906101000a900473ffffffffffffffffffffffffffffffffffffffff16905081600660006101000a81548173ffffffffffffffffffffffffffffffffffffffff021916908373ffffffffffffffffffffffffffffffffffffffff1602179055508173ffffffffffffffffffffffffffffffffffffffff168173ffffffffffffffffffffffffffffffffffffffff167f8be0079c531659141344cd1fd0a4f28419497f9722a3daafe3b4186f6b6457e060405160405180910390a35050565b6000604051905090565b600080fd5b600080fd5b600073ffffffffffffffffffffffffffffffffffffffff82169050919050565b60006102378261020c565b9050919050565b6102478161022c565b811461025257600080fd5b50565b6000815190506102648161023e565b92915050565b600080fd5b600080fd5b6000601f19601f8301169050919050565b7f4e487b7100000000000000000000000000000000000000000000000000000000600052604160045260246000fd5b6102bd82610274565b810181811067ffffffffffffffff821117156102dc576102db610285565b5b80604052505050565b60006102ef6101f8565b90506102fb82826102b4565b919050565b600067ffffffffffffffff82111561031b5761031a610285565b5b61032482610274565b9050602081019050919050565b60005b8381101561034f578082015181840152602081019050610334565b60008484015250505050565b600061036e61036984610300565b6102e5565b90508281526020810184848401111561038a5761038961026f565b5b610395848285610331565b509392505050565b600082601f8301126103b2576103b161026a565b5b81516103c284826020860161035b565b91505092915050565b6000806000606084860312156103e4576103e3610202565b5b60006103f286828701610255565b935050602084015167ffffffffffffffff81111561041357610412610207565b5b61041f8682870161039d565b925050604084015167ffffffffffffffff8111156104405761043f610207565b5b61044c8682870161039d565b9150509250925092565b600081519050919050565b7f4e487b7100000000000000000000000000000000000000000000000000000000600052602260045260246000fd5b600060028204905060018216806104a857607f821691505b6020821081036104bb576104ba610461565b5b50919050565b60008190508160005260206000209050919050565b60006020601f8301049050919050565b600082821b905092915050565b6000600883026105237fffffffffffffffffffffffffffffffffffffffffffffffffffffffffffffffff826104e6565b61052d86836104e6565b95508019841693508086168417925050509392505050565b6000819050919050565b6000819050919050565b600061057461056f61056a84610545565b61054f565b610545565b9050919050565b6000819050919050565b61058e83610559565b6105a261059a8261057b565b8484546104f3565b825550505050565b600090565b6105b76105aa565b6105c2818484610585565b505050565b5b818110156105e6576105db6000826105af565b6001810190506105c8565b5050565b601f82111561062b576105fc816104c1565b610605846104d6565b81016020851015610614578190505b610628610620856104d6565b8301826105c7565b50505b505050565b600082821c905092915050565b600061064e60001984600802610630565b1980831691505092915050565b6000610667838361063d565b9150826002028217905092915050565b61068082610456565b67ffffffffffffffff81111561069957610698610285565b5b6106a38254610490565b6106ae8282856105ea565b600060209050601f8311600181146106e157600084156106cf578287015190505b6106d9858261065b565b865550610741565b601f1984166106ef866104c1565b60005b82811015610717578489015182556001820191506020850194506020810190506106f2565b868310156107345784890151610730601f89168261063d565b8355505b6001600288020188555050505b505050505050565b600082825260208201905092915050565b7f7a65726f20726567697374727900000000000000000000000000000000000000600082015250565b6000610790600d83610749565b915061079b8261075a565b602082019050919050565b600060208201905081810360008301526107bf81610783565b9050919050565b612a1a806107d56000396000f3fe608060405234801561001057600080fd5b506004361061012c5760003560e01c80637b103999116100ad578063a91ee0dc11610071578063a91ee0dc1461032f578063b88d4fde1461034b578063c87b56dd14610367578063e985e9c514610397578063f2fde38b146103c75761012c565b80637b103999146102895780637dc0bf3f146102a75780638da5cb5b146102d757806395d89b41146102f5578063a22cb465146103135761012c565b806323b872dd116100f457806323b872dd146101e757806342842e0e146102035780636352211e1461021f57806370a082311461024f578063715018a61461027f5761012c565b806301ffc9a71461013157806306fdde0314610161578063081812fc1461017f578063095ea7b3146101af5780630a884f58146101cb575b600080fd5b61014b60048036038101906101469190611937565b6103e3565b604051610158919061197f565b60405180910390f35b6101696104c5565b6040516101769190611a2a565b60405180910390f35b61019960048036038101906101949190611a82565b610557565b6040516101a69190611af0565b60405180910390f35b6101c960048036038101906101c49190611b37565b61059d565b005b6101e560048036038101906101e09190611bad565b6105d8565b005b61020160048036038101906101fc9190611c14565b610997565b005b61021d60048036038101906102189190611c14565b6109d2565b005b61023960048036038101906102349190611a82565b610a0d565b6040516102469190611af0565b60405180910390f35b61026960048036038101906102649190611c67565b610a93565b6040516102769190611ca3565b60405180910390f35b610287610b4a565b005b610291610b5e565b60405161029e9190611d1d565b60405180910390f35b6102c160048036038101906102bc9190611a82565b610b84565b6040516102ce919061197f565b60405180910390f35b6102df610ba4565b6040516102ec9190611af0565b60405180910390f35b6102fd610bce565b60405161030a9190611a2a565b60405180910390f35b61032d60048036038101906103289190611d64565b610c60565b005b61034960048036038101906103449190611c67565b610c9b565b005b61036560048036038101906103609190611ed9565b610d56565b005b610381600480360381019061037c9190611a82565b610d91565b60405161038e9190611a2a565b60405180910390f35b6103b160048036038101906103ac9190611f5c565b610df9565b6040516103be919061197f565b60405180910390f35b6103e160048036038101906103dc9190611c67565b610e8d565b005b60007f80ac58cd000000000000000000000000000000000000000000000000000000007bffffffffffffffffffffffffffffffffffffffffffffffffffffffff1916827bffffffffffffffffffffffffffffffffffffffffffffffffffffffff191614806104ae57507f5b5e139f000000000000000000000000000000000000000000000000000000007bffffffffffffffffffffffffffffffffffffffffffffffffffffffff1916827bffffffffffffffffffffffffffffffffffffffffffffffffffffffff1916145b806104be57506104bd82610f10565b5b9050919050565b6060600080546104d490611fcb565b80601f016020809104026020016040519081016040528092919081815260200182805461050090611fcb565b801561054d5780601f106105225761010080835404028352916020019161054d565b820191906000526020600020905b81548152906001019060200180831161053057829003601f168201915b5050505050905090565b600061056282610f7a565b6004600083815260200190815260200160002060009054906101000a900473ffffffffffffffffffffffffffffffffffffffff169050919050565b6040517f08c379a00000000000000000000000000000000000000000000000000000000081526004016105cf90612048565b60405180910390fd5b600760009054906101000a900473ffffffffffffffffffffffffffffffffffffffff1673ffffffffffffffffffffffffffffffffffffffff16633a5381b56040518163ffffffff1660e01b8152600401602060405180830381865afa158015610645573d6000803e3d6000fd5b505050506040513d601f19601f82011682018060405250810190610669919061207d565b73ffffffffffffffffffffffffffffffffffffffff163373ffffffffffffffffffffffffffffffffffffffff16146106d6576040517f08c379a00000000000000000000000000000000000000000000000000000000081526004016106cd906120f6565b60405180910390fd5b600073ffffffffffffffffffffffffffffffffffffffff168373ffffffffffffffffffffffffffffffffffffffff1603610745576040517f08c379a000000000000000000000000000000000000000000000000000000000815260040161073c90612162565b60405180910390fd5b6000806000600760009054906101000a900473ffffffffffffffffffffffffffffffffffffffff1673ffffffffffffffffffffffffffffffffffffffff1663ddc7e709886040518263ffffffff1660e01b81526004016107a59190611ca3565b600060405180830381865afa1580156107c2573d6000803e3d6000fd5b505050506040513d6000823e3d601f19601f820116820180604052508101906107eb9190612272565b9350935093505060016002811115610806576108056122f5565b5b816002811115610819576108186122f5565b5b14610859576040517f08c379a000000000000000000000000000000000000000000000000000000000815260040161085090612370565b60405180910390fd5b848314801561086757508382145b6108a6576040517f08c379a000000000000000000000000000000000000000000000000000000000815260040161089d906123dc565b60405180910390fd5b6008600088815260200190815260200160002060009054906101000a900460ff1615610907576040517f08c379a00000000000000000000000000000000000000000000000000000000081526004016108fe90612448565b60405180910390fd5b60016008600089815260200190815260200160002060006101000a81548160ff02191690831515021790555061093d8688610fc5565b868673ffffffffffffffffffffffffffffffffffffffff167f8ddc5484c4ea8626c9b4bb13787c9b25b1e70ddcd75fc3ac9ab5aa6c17c0fc978787604051610986929190612477565b60405180910390a350505050505050565b6040517f08c379a00000000000000000000000000000000000000000000000000000000081526004016109c990612048565b60405180910390fd5b6040517f08c379a0000000000000000000000000000000000000000000000000000000008152600401610a0490612048565b60405180910390fd5b600080610a1983610fe3565b9050600073ffffffffffffffffffffffffffffffffffffffff168173ffffffffffffffffffffffffffffffffffffffff1603610a8a576040517f08c379a0000000000000000000000000000000000000000000000000000000008152600401610a81906124ec565b60405180910390fd5b80915050919050565b60008073ffffffffffffffffffffffffffffffffffffffff168273ffffffffffffffffffffffffffffffffffffffff1603610b03576040517f08c379a0000000000000000000000000000000000000000000000000000000008152600401610afa9061257e565b60405180910390fd5b600360008373ffffffffffffffffffffffffffffffffffffffff1673ffffffffffffffffffffffffffffffffffffffff168152602001908152602001600020549050919050565b610b52611020565b610b5c600061109e565b565b600760009054906101000a900473ffffffffffffffffffffffffffffffffffffffff1681565b60086020528060005260406000206000915054906101000a900460ff1681565b6000600660009054906101000a900473ffffffffffffffffffffffffffffffffffffffff16905090565b606060018054610bdd90611fcb565b80601f0160208091040260200160405190810160405280929190818152602001828054610c0990611fcb565b8015610c565780601f10610c2b57610100808354040283529160200191610c56565b820191906000526020600020905b815481529060010190602001808311610c3957829003601f168201915b5050505050905090565b6040517f08c379a0000000000000000000000000000000000000000000000000000000008152600401610c9290612048565b60405180910390fd5b610ca3611020565b600073ffffffffffffffffffffffffffffffffffffffff168173ffffffffffffffffffffffffffffffffffffffff1603610d12576040517f08c379a0000000000000000000000000000000000000000000000000000000008152600401610d09906125ea565b60405180910390fd5b80600760006101000a81548173ffffffffffffffffffffffffffffffffffffffff021916908373ffffffffffffffffffffffffffffffffffffffff16021790555050565b6040517f08c379a0000000000000000000000000000000000000000000000000000000008152600401610d8890612048565b60405180910390fd5b6060610d9c82610f7a565b6000610da6611164565b90506000815111610dc65760405180602001604052806000815250610df1565b80610dd08461117b565b604051602001610de1929190612646565b6040516020818303038152906040525b915050919050565b6000600560008473ffffffffffffffffffffffffffffffffffffffff1673ffffffffffffffffffffffffffffffffffffffff16815260200190815260200160002060008373ffffffffffffffffffffffffffffffffffffffff1673ffffffffffffffffffffffffffffffffffffffff16815260200190815260200160002060009054906101000a900460ff16905092915050565b610e95611020565b600073ffffffffffffffffffffffffffffffffffffffff168173ffffffffffffffffffffffffffffffffffffffff1603610f04576040517f08c379a0000000000000000000000000000000000000000000000000000000008152600401610efb906126dc565b60405180910390fd5b610f0d8161109e565b50565b60007f01ffc9a7000000000000000000000000000000000000000000000000000000007bffffffffffffffffffffffffffffffffffffffffffffffffffffffff1916827bffffffffffffffffffffffffffffffffffffffffffffffffffffffff1916149050919050565b610f8381611249565b610fc2576040517f08c379a0000000000000000000000000000000000000000000000000000000008152600401610fb9906124ec565b60405180910390fd5b50565b610fdf82826040518060200160405280600081525061128a565b5050565b60006002600083815260200190815260200160002060009054906101000a900473ffffffffffffffffffffffffffffffffffffffff169050919050565b6110286112e5565b73ffffffffffffffffffffffffffffffffffffffff16611046610ba4565b73ffffffffffffffffffffffffffffffffffffffff161461109c576040517f08c379a000000000000000000000000000000000000000000000000000000000815260040161109390612748565b60405180910390fd5b565b6000600660009054906101000a900473ffffffffffffffffffffffffffffffffffffffff16905081600660006101000a81548173ffffffffffffffffffffffffffffffffffffffff021916908373ffffffffffffffffffffffffffffffffffffffff1602179055508173ffffffffffffffffffffffffffffffffffffffff168173ffffffffffffffffffffffffffffffffffffffff167f8be0079c531659141344cd1fd0a4f28419497f9722a3daafe3b4186f6b6457e060405160405180910390a35050565b606060405180602001604052806000815250905090565b60606000600161118a846112ed565b01905060008167ffffffffffffffff8111156111a9576111a8611dae565b5b6040519080825280601f01601f1916602001820160405280156111db5781602001600182028036833780820191505090505b509050600082602001820190505b60011561123e578080600190039150507f3031323334353637383961626364656600000000000000000000000000000000600a86061a8153600a858161123257611231612768565b5b049450600085036111e9575b819350505050919050565b60008073ffffffffffffffffffffffffffffffffffffffff1661126b83610fe3565b73ffffffffffffffffffffffffffffffffffffffff1614159050919050565b6112948383611440565b6112a1600084848461165d565b6112e0576040517f08c379a00000000000000000000000000000000000000000000000000000000081526004016112d790612809565b60405180910390fd5b505050565b600033905090565b600080600090507a184f03e93ff9f4daa797ed6e38ed64bf6a1f010000000000000000831061134b577a184f03e93ff9f4daa797ed6e38ed64bf6a1f010000000000000000838161134157611340612768565b5b0492506040810190505b6d04ee2d6d415b85acef81000000008310611388576d04ee2d6d415b85acef8100000000838161137e5761137d612768565b5b0492506020810190505b662386f26fc1000083106113b757662386f26fc1000083816113ad576113ac612768565b5b0492506010810190505b6305f5e10083106113e0576305f5e10083816113d6576113d5612768565b5b0492506008810190505b61271083106114055761271083816113fb576113fa612768565b5b0492506004810190505b60648310611428576064838161141e5761141d612768565b5b0492506002810190505b600a8310611437576001810190505b80915050919050565b600073ffffffffffffffffffffffffffffffffffffffff168273ffffffffffffffffffffffffffffffffffffffff16036114af576040517f08c379a00000000000000000000000000000000000000000000000000000000081526004016114a690612875565b60405180910390fd5b6114b881611249565b156114f8576040517f08c379a00000000000000000000000000000000000000000000000000000000081526004016114ef906128e1565b60405180910390fd5b6115066000838360016117e4565b61150f81611249565b1561154f576040517f08c379a0000000000000000000000000000000000000000000000000000000008152600401611546906128e1565b60405180910390fd5b6001600360008473ffffffffffffffffffffffffffffffffffffffff1673ffffffffffffffffffffffffffffffffffffffff16815260200190815260200160002060008282540192505081905550816002600083815260200190815260200160002060006101000a81548173ffffffffffffffffffffffffffffffffffffffff021916908373ffffffffffffffffffffffffffffffffffffffff160217905550808273ffffffffffffffffffffffffffffffffffffffff16600073ffffffffffffffffffffffffffffffffffffffff167fddf252ad1be2c89b69c2b068fc378daa952ba7f163c4a11628f55a4df523b3ef60405160405180910390a461165960008383600161189c565b5050565b600061167e8473ffffffffffffffffffffffffffffffffffffffff166118a2565b156117d7578373ffffffffffffffffffffffffffffffffffffffff1663150b7a026116a76112e5565b8786866040518563ffffffff1660e01b81526004016116c99493929190612956565b6020604051808303816000875af192505050801561170557506040513d601f19601f8201168201806040525081019061170291906129b7565b60015b611787573d8060008114611735576040519150601f19603f3d011682016040523d82523d6000602084013e61173a565b606091505b50600081510361177f576040517f08c379a000000000000000000000000000000000000000000000000000000000815260040161177690612809565b60405180910390fd5b805181602001fd5b63150b7a0260e01b7bffffffffffffffffffffffffffffffffffffffffffffffffffffffff1916817bffffffffffffffffffffffffffffffffffffffffffffffffffffffff1916149150506117dc565b600190505b949350505050565b600073ffffffffffffffffffffffffffffffffffffffff168473ffffffffffffffffffffffffffffffffffffffff16148061184b5750600073ffffffffffffffffffffffffffffffffffffffff168373ffffffffffffffffffffffffffffffffffffffff16145b61188a576040517f08c379a000000000000000000000000000000000000000000000000000000000815260040161188190612048565b60405180910390fd5b611896848484846118c5565b50505050565b50505050565b6000808273ffffffffffffffffffffffffffffffffffffffff163b119050919050565b50505050565b6000604051905090565b600080fd5b600080fd5b60007fffffffff0000000000000000000000000000000000000000000000000000000082169050919050565b611914816118df565b811461191f57600080fd5b50565b6000813590506119318161190b565b92915050565b60006020828403121561194d5761194c6118d5565b5b600061195b84828501611922565b91505092915050565b60008115159050919050565b61197981611964565b82525050565b60006020820190506119946000830184611970565b92915050565b600081519050919050565b600082825260208201905092915050565b60005b838110156119d45780820151818401526020810190506119b9565b60008484015250505050565b6000601f19601f8301169050919050565b60006119fc8261199a565b611a0681856119a5565b9350611a168185602086016119b6565b611a1f816119e0565b840191505092915050565b60006020820190508181036000830152611a4481846119f1565b905092915050565b6000819050919050565b611a5f81611a4c565b8114611a6a57600080fd5b50565b600081359050611a7c81611a56565b92915050565b600060208284031215611a9857611a976118d5565b5b6000611aa684828501611a6d565b91505092915050565b600073ffffffffffffffffffffffffffffffffffffffff82169050919050565b6000611ada82611aaf565b9050919050565b611aea81611acf565b82525050565b6000602082019050611b056000830184611ae1565b92915050565b611b1481611acf565b8114611b1f57600080fd5b50565b600081359050611b3181611b0b565b92915050565b60008060408385031215611b4e57611b4d6118d5565b5b6000611b5c85828601611b22565b9250506020611b6d85828601611a6d565b9150509250929050565b6000819050919050565b611b8a81611b77565b8114611b9557600080fd5b50565b600081359050611ba781611b81565b92915050565b60008060008060808587031215611bc757611bc66118d5565b5b6000611bd587828801611a6d565b9450506020611be687828801611b22565b9350506040611bf787828801611b98565b9250506060611c0887828801611a6d565b91505092959194509250565b600080600060608486031215611c2d57611c2c6118d5565b5b6000611c3b86828701611b22565b9350506020611c4c86828701611b22565b9250506040611c5d86828701611a6d565b9150509250925092565b600060208284031215611c7d57611c7c6118d5565b5b6000611c8b84828501611b22565b91505092915050565b611c9d81611a4c565b82525050565b6000602082019050611cb86000830184611c94565b92915050565b6000819050919050565b6000611ce3611cde611cd984611aaf565b611cbe565b611aaf565b9050919050565b6000611cf582611cc8565b9050919050565b6000611d0782611cea565b9050919050565b611d1781611cfc565b82525050565b6000602082019050611d326000830184611d0e565b92915050565b611d4181611964565b8114611d4c57600080fd5b50565b600081359050611d5e81611d38565b92915050565b60008060408385031215611d7b57611d7a6118d5565b5b6000611d8985828601611b22565b9250506020611d9a85828601611d4f565b9150509250929050565b600080fd5b600080fd5b7f4e487b7100000000000000000000000000000000000000000000000000000000600052604160045260246000fd5b611de6826119e0565b810181811067ffffffffffffffff82111715611e0557611e04611dae565b5b80604052505050565b6000611e186118cb565b9050611e248282611ddd565b919050565b600067ffffffffffffffff821115611e4457611e43611dae565b5b611e4d826119e0565b9050602081019050919050565b82818337600083830152505050565b6000611e7c611e7784611e29565b611e0e565b905082815260208101848484011115611e9857611e97611da9565b5b611ea3848285611e5a565b509392505050565b600082601f830112611ec057611ebf611da4565b5b8135611ed0848260208601611e69565b91505092915050565b60008060008060808587031215611ef357611ef26118d5565b5b6000611f0187828801611b22565b9450506020611f1287828801611b22565b9350506040611f2387828801611a6d565b925050606085013567ffffffffffffffff811115611f4457611f436118da565b5b611f5087828801611eab565b91505092959194509250565b60008060408385031215611f7357611f726118d5565b5b6000611f8185828601611b22565b9250506020611f9285828601611b22565b9150509250929050565b7f4e487b7100000000000000000000000000000000000000000000000000000000600052602260045260246000fd5b60006002820490506001821680611fe357607f821691505b602082108103611ff657611ff5611f9c565b5b50919050565b7f536f756c626f756e643a206e6f6e2d7472616e7366657261626c650000000000600082015250565b6000612032601b836119a5565b915061203d82611ffc565b602082019050919050565b6000602082019050818103600083015261206181612025565b9050919050565b60008151905061207781611b0b565b92915050565b600060208284031215612093576120926118d5565b5b60006120a184828501612068565b91505092915050565b7f4e6f742076616c696461746f7200000000000000000000000000000000000000600082015250565b60006120e0600d836119a5565b91506120eb826120aa565b602082019050919050565b6000602082019050818103600083015261210f816120d3565b9050919050565b7f7a65726f2063616e646964617465000000000000000000000000000000000000600082015250565b600061214c600e836119a5565b915061215782612116565b602082019050919050565b6000602082019050818103600083015261217b8161213f565b9050919050565b600067ffffffffffffffff82111561219d5761219c611dae565b5b6121a6826119e0565b9050602081019050919050565b60006121c66121c184612182565b611e0e565b9050828152602081018484840111156121e2576121e1611da9565b5b6121ed8482856119b6565b509392505050565b600082601f83011261220a57612209611da4565b5b815161221a8482602086016121b3565b91505092915050565b60008151905061223281611b81565b92915050565b60008151905061224781611a56565b92915050565b6003811061225a57600080fd5b50565b60008151905061226c8161224d565b92915050565b6000806000806080858703121561228c5761228b6118d5565b5b600085015167ffffffffffffffff8111156122aa576122a96118da565b5b6122b6878288016121f5565b94505060206122c787828801612223565b93505060406122d887828801612238565b92505060606122e98782880161225d565b91505092959194509250565b7f4e487b7100000000000000000000000000000000000000000000000000000000600052602160045260246000fd5b7f4e6f2061747465737465642063726564656e7469616c00000000000000000000600082015250565b600061235a6016836119a5565b915061236582612324565b602082019050919050565b600060208201905081810360008301526123898161234d565b9050919050565b7f4d65746164617461206d69736d61746368000000000000000000000000000000600082015250565b60006123c66011836119a5565b91506123d182612390565b602082019050919050565b600060208201905081810360008301526123f5816123b9565b9050919050565b7f53425420616c7265616479206d696e7465640000000000000000000000000000600082015250565b60006124326012836119a5565b915061243d826123fc565b602082019050919050565b6000602082019050818103600083015261246181612425565b9050919050565b61247181611b77565b82525050565b600060408201905061248c6000830185612468565b6124996020830184611c94565b9392505050565b7f4552433732313a20696e76616c696420746f6b656e2049440000000000000000600082015250565b60006124d66018836119a5565b91506124e1826124a0565b602082019050919050565b60006020820190508181036000830152612505816124c9565b9050919050565b7f4552433732313a2061646472657373207a65726f206973206e6f74206120766160008201527f6c6964206f776e65720000000000000000000000000000000000000000000000602082015250565b60006125686029836119a5565b91506125738261250c565b604082019050919050565b600060208201905081810360008301526125978161255b565b9050919050565b7f7a65726f00000000000000000000000000000000000000000000000000000000600082015250565b60006125d46004836119a5565b91506125df8261259e565b602082019050919050565b60006020820190508181036000830152612603816125c7565b9050919050565b600081905092915050565b60006126208261199a565b61262a818561260a565b935061263a8185602086016119b6565b80840191505092915050565b60006126528285612615565b915061265e8284612615565b91508190509392505050565b7f4f776e61626c653a206e6577206f776e657220697320746865207a65726f206160008201527f6464726573730000000000000000000000000000000000000000000000000000602082015250565b60006126c66026836119a5565b91506126d18261266a565b604082019050919050565b600060208201905081810360008301526126f5816126b9565b9050919050565b7f4f776e61626c653a2063616c6c6572206973206e6f7420746865206f776e6572600082015250565b60006127326020836119a5565b915061273d826126fc565b602082019050919050565b6000602082019050818103600083015261276181612725565b9050919050565b7f4e487b7100000000000000000000000000000000000000000000000000000000600052601260045260246000fd5b7f4552433732313a207472616e7366657220746f206e6f6e20455243373231526560008201527f63656976657220696d706c656d656e7465720000000000000000000000000000602082015250565b60006127f36032836119a5565b91506127fe82612797565b604082019050919050565b60006020820190508181036000830152612822816127e6565b9050919050565b7f4552433732313a206d696e7420746f20746865207a65726f2061646472657373600082015250565b600061285f6020836119a5565b915061286a82612829565b602082019050919050565b6000602082019050818103600083015261288e81612852565b9050919050565b7f4552433732313a20746f6b656e20616c7265616479206d696e74656400000000600082015250565b60006128cb601c836119a5565b91506128d682612895565b602082019050919050565b600060208201905081810360008301526128fa816128be565b9050919050565b600081519050919050565b600082825260208201905092915050565b600061292882612901565b612932818561290c565b93506129428185602086016119b6565b61294b816119e0565b840191505092915050565b600060808201905061296b6000830187611ae1565b6129786020830186611ae1565b6129856040830185611c94565b8181036060830152612997818461291d565b905095945050505050565b6000815190506129b18161190b565b92915050565b6000602082840312156129cd576129cc6118d5565b5b60006129db848285016129a2565b9150509291505056fea2646970667358221220bb1491a5ab73bf0673d7ca8d947b8c1fc2f5f524723cd2240ff19f946b1e9b8b64736f6c634300081c0033",
  "linkReferences": {},
  "deployedLinkReferences": {}
}