{
  "_format": "hh-sol-artifact-1",
  "contractName": "CredentialRegistry",
  "sourceName": "contracts/CredentialRegistry.sol",
  "abi": [
    {
      "inputs": [
        {
          "internalType": "address",
          "name": "initialValidator",
          "type": "address"
        }
      ],
      "stateMutability": "nonpayable",
      "type": "constructor"
    },
    {
      "anonymous": false,
      "inputs": [
        {
          "indexed": true,
          "internalType": "uint256",
          "name": "tokenId",
          "type": "uint256"
        },
        {
          "indexed": false,
          "internalType": "string",
          "name": "issuerID",
          "type": "string"
        },
        {
          "indexed": false,
          "internalType": "bytes32",
          "name": "metaHash",
          "type": "bytes32"
        },
        {
          "indexed": false,
          "internalType": "uint256",
          "name": "expiry",
          "type": "uint256"
        }
      ],
      "name": "CredentialRegistered",
      "type": "event"
    },
    {
      "anonymous": false,
      "inputs": [
        {
          "indexed": true,
          "internalType": "address",
          "name": "previousOwner",
          "type": "address"
        },
        {
          "indexed": true,
          "internalType": "address",
          "name": "newOwner",
          "type": "address"
        }
      ],
      "name": "OwnershipTransferred",
      "type": "event"
    },
    {
      "anonymous": false,
      "inputs": [
        {
          "indexed": true,
          "internalType": "address",
          "name": "oldValidator",
          "type": "address"
        },
        {
          "indexed": true,
          "internalType": "address",
          "name": "newValidator",
          "type": "address"
        }
      ],
      "name": "ValidatorUpdated",
      "type": "event"
    },
    {
      "inputs": [
        {
          "internalType": "string",
          "name": "issuerID",
          "type": "string"
        },
        {
          "internalType": "string",
          "name": "subjectID",
          "type": "string"
        },
        {
          "internalType": "string",
          "name": "credType",
          "type": "string"
        },
        {
          "internalType": "uint256",
          "name": "issueDate",
          "type": "uint256"
        },
        {
          "internalType": "uint256",
          "name": "expiry",
          "type": "uint256"
        }
      ],
      "name": "attest",
      "outputs": [
        {
          "internalType": "uint256",
          "name": "tokenId",
          "type": "uint256"
        }
      ],
      "stateMutability": "nonpayable",
      "type": "function"
    },
    {
      "inputs": [],
      "name": "currentTokenCounter",
      "outputs": [
        {
          "internalType": "uint256",
          "name": "",
          "type": "uint256"
        }
      ],
      "stateMutability": "view",
      "type": "function"
    },
    {
      "inputs": [
        {
          "internalType": "uint256",
          "name": "tokenId",
          "type": "uint256"
        }
      ],
      "name": "getCredentialInfo",
      "outputs": [
        {
          "internalType": "string",
          "name": "issuerID",
          "type": "string"
        },
        {
          "internalType": "bytes32",
          "name": "metaHash",
          "type": "bytes32"
        },
        {
          "internalType": "uint256",
          "name": "expiry",
          "type": "uint256"
        },
        {
          "internalType": "enum CredentialRegistry.Status",
          "name": "status",
          "type": "uint8"
        }
      ],
      "stateMutability": "view",
      "type": "function"
    },
    {
      "inputs": [],
      "name": "owner",
      "outputs": [
        {
          "internalType": "address",
          "name": "",
          "type": "address"
        }
      ],
      "stateMutability": "view",
      "type": "function"
    },
    {
      "inputs": [],
      "name": "renounceOwnership",
      "outputs": [],
      "stateMutability": "nonpayable",
      "type": "function"
    },
    {
      "inputs": [
        {
          "internalType": "address",
          "name": "newValidator",
          "type": "address"
        }
      ],
      "name": "setValidator",
      "outputs": [],
      "stateMutability": "nonpayable",
      "type": "function"
    },
    {
      "inputs": [
        {
          "internalType": "address",
          "name": "newOwner",
          "type": "address"
        }
      ],
      "name": "transferOwnership",
      "outputs": [],
      "stateMutability": "nonpayable",
      "type": "function"
    },
    {
      "inputs": [],
      "name": "validator",
      "outputs": [
        {
          "internalType": "address",
          "name": "",
          "type": "address"
        }
      ],
      "stateMutability": "view",
      "type": "function"
    }
  ],
  "bytecode": "0x608060405234801561001057600080fd5b5060405161177e38038061177e83398181016040528101906100329190610233565b61004e61004361010460201b60201c565b61010c60201b60201c565b600073ffffffffffffffffffffffffffffffffffffffff168173ffffffffffffffffffffffffffffffffffffffff16036100bd576040517f08c379a00000000000000000000000000000000000000000000000000000000081526004016100b4906102bd565b60405180910390fd5b80600360006101000a81548173ffffffffffffffffffffffffffffffffffffffff021916908373ffffffffffffffffffffffffffffffffffffffff160217905550506102dd565b600033905090565b60008060009054906101000a900473ffffffffffffffffffffffffffffffffffffffff169050816000806101000a81548173ffffffffffffffffffffffffffffffffffffffff021916908373ffffffffffffffffffffffffffffffffffffffff1602179055508173ffffffffffffffffffffffffffffffffffffffff168173ffffffffffffffffffffffffffffffffffffffff167f8be0079c531659141344cd1fd0a4f28419497f9722a3daafe3b4186f6b6457e060405160405180910390a35050565b600080fd5b600073ffffffffffffffffffffffffffffffffffffffff82169050919050565b6000610200826101d5565b9050919050565b610210816101f5565b811461021b57600080fd5b50565b60008151905061022d81610207565b92915050565b600060208284031215610249576102486101d0565b5b60006102578482850161021e565b91505092915050565b600082825260208201905092915050565b7f5a65726f2076616c696461746f72000000000000000000000000000000000000600082015250565b60006102a7600e83610260565b91506102b282610271565b602082019050919050565b600060208201905081810360008301526102d68161029a565b9050919050565b611492806102ec6000396000f3fe608060405234801561001057600080fd5b50600436106100885760003560e01c8063841404a31161005b578063841404a3146100ef5780638da5cb5b1461011f578063ddc7e7091461013d578063f2fde38b1461017057610088565b80631327d3d81461008d5780633a5381b5146100a9578063449e59ee146100c7578063715018a6146100e5575b600080fd5b6100a760048036038101906100a29190610998565b61018c565b005b6100b16102c9565b6040516100be91906109d4565b60405180910390f35b6100cf6102ef565b6040516100dc9190610a08565b60405180910390f35b6100ed6102f9565b005b61010960048036038101906101049190610ab4565b61030d565b6040516101169190610a08565b60405180910390f35b610127610523565b60405161013491906109d4565b60405180910390f35b61015760048036038101906101529190610b90565b61054c565b6040516101679493929190610cdd565b60405180910390f35b61018a60048036038101906101859190610998565b61069d565b005b610194610720565b600073ffffffffffffffffffffffffffffffffffffffff168173ffffffffffffffffffffffffffffffffffffffff1603610203576040517f08c379a00000000000000000000000000000000000000000000000000000000081526004016101fa90610d75565b60405180910390fd5b6000600360009054906101000a900473ffffffffffffffffffffffffffffffffffffffff16905081600360006101000a81548173ffffffffffffffffffffffffffffffffffffffff021916908373ffffffffffffffffffffffffffffffffffffffff1602179055508173ffffffffffffffffffffffffffffffffffffffff168173ffffffffffffffffffffffffffffffffffffffff167fcfac5dc75b8d9a7e074162f59d9adcd33da59f0fe8dfb21580db298fc0fdad0d60405160405180910390a35050565b600360009054906101000a900473ffffffffffffffffffffffffffffffffffffffff1681565b6000600254905090565b610301610720565b61030b600061079e565b565b6000600360009054906101000a900473ffffffffffffffffffffffffffffffffffffffff1673ffffffffffffffffffffffffffffffffffffffff163373ffffffffffffffffffffffffffffffffffffffff161461039f576040517f08c379a000000000000000000000000000000000000000000000000000000000815260040161039690610de1565b60405180910390fd5b6103af8989898989898989610862565b6103b7610904565b90506000898989898989896040516020016103d89796959493929190610e61565b60405160208183030381529060405280519060200120905060405180608001604052808b8b8080601f016020809104026020016040519081016040528093929190818152602001838380828437600081840152601f19601f8201169050808301925050505050505081526020018281526020018481526020016001600281111561046557610464610c66565b5b81525060016000848152602001908152602001600020600082015181600001908161049091906110e4565b50602082015181600101556040820151816002015560608201518160030160006101000a81548160ff021916908360028111156104d0576104cf610c66565b5b0217905550905050817f9bb6d1cc25ee1fa671dae2ed97e61b3628515344f75001e89779a037429bbbbb8b8b848760405161050e94939291906111e3565b60405180910390a25098975050505050505050565b60008060009054906101000a900473ffffffffffffffffffffffffffffffffffffffff16905090565b60606000806000806001600087815260200190815260200160002090506000600281111561057d5761057c610c66565b5b8160030160009054906101000a900460ff1660028111156105a1576105a0610c66565b5b036105e1576040517f08c379a00000000000000000000000000000000000000000000000000000000081526004016105d89061126f565b60405180910390fd5b80600001816001015482600201548360030160009054906101000a900460ff1683805461060d90610f07565b80601f016020809104026020016040519081016040528092919081815260200182805461063990610f07565b80156106865780601f1061065b57610100808354040283529160200191610686565b820191906000526020600020905b81548152906001019060200180831161066957829003601f168201915b505050505093509450945094509450509193509193565b6106a5610720565b600073ffffffffffffffffffffffffffffffffffffffff168173ffffffffffffffffffffffffffffffffffffffff1603610714576040517f08c379a000000000000000000000000000000000000000000000000000000000815260040161070b90611301565b60405180910390fd5b61071d8161079e565b50565b610728610928565b73ffffffffffffffffffffffffffffffffffffffff16610746610523565b73ffffffffffffffffffffffffffffffffffffffff161461079c576040517f08c379a00000000000000000000000000000000000000000000000000000000081526004016107939061136d565b60405180910390fd5b565b60008060009054906101000a900473ffffffffffffffffffffffffffffffffffffffff169050816000806101000a81548173ffffffffffffffffffffffffffffffffffffffff021916908373ffffffffffffffffffffffffffffffffffffffff1602179055508173ffffffffffffffffffffffffffffffffffffffff168173ffffffffffffffffffffffffffffffffffffffff167f8be0079c531659141344cd1fd0a4f28419497f9722a3daafe3b4186f6b6457e060405160405180910390a35050565b6000808989905014806108785750600087879050145b806108865750600085859050145b905060008084149050600080841180156108a05750428411155b9050821580156108ae575081155b80156108b8575080155b6108f7576040517f08c379a00000000000000000000000000000000000000000000000000000000081526004016108ee906113d9565b60405180910390fd5b5050505050505050505050565b60006001600260008282546109199190611428565b92505081905550600254905090565b600033905090565b600080fd5b600080fd5b600073ffffffffffffffffffffffffffffffffffffffff82169050919050565b60006109658261093a565b9050919050565b6109758161095a565b811461098057600080fd5b50565b6000813590506109928161096c565b92915050565b6000602082840312156109ae576109ad610930565b5b60006109bc84828501610983565b91505092915050565b6109ce8161095a565b82525050565b60006020820190506109e960008301846109c5565b92915050565b6000819050919050565b610a02816109ef565b82525050565b6000602082019050610a1d60008301846109f9565b92915050565b600080fd5b600080fd5b600080fd5b60008083601f840112610a4857610a47610a23565b5b8235905067ffffffffffffffff811115610a6557610a64610a28565b5b602083019150836001820283011115610a8157610a80610a2d565b5b9250929050565b610a91816109ef565b8114610a9c57600080fd5b50565b600081359050610aae81610a88565b92915050565b60008060008060008060008060a0898b031215610ad457610ad3610930565b5b600089013567ffffffffffffffff811115610af257610af1610935565b5b610afe8b828c01610a32565b9850985050602089013567ffffffffffffffff811115610b2157610b20610935565b5b610b2d8b828c01610a32565b9650965050604089013567ffffffffffffffff811115610b5057610b4f610935565b5b610b5c8b828c01610a32565b94509450506060610b6f8b828c01610a9f565b9250506080610b808b828c01610a9f565b9150509295985092959890939650565b600060208284031215610ba657610ba5610930565b5b6000610bb484828501610a9f565b91505092915050565b600081519050919050565b600082825260208201905092915050565b60005b83811015610bf7578082015181840152602081019050610bdc565b60008484015250505050565b6000601f19601f8301169050919050565b6000610c1f82610bbd565b610c298185610bc8565b9350610c39818560208601610bd9565b610c4281610c03565b840191505092915050565b6000819050919050565b610c6081610c4d565b82525050565b7f4e487b7100000000000000000000000000000000000000000000000000000000600052602160045260246000fd5b60038110610ca657610ca5610c66565b5b50565b6000819050610cb782610c95565b919050565b6000610cc782610ca9565b9050919050565b610cd781610cbc565b82525050565b60006080820190508181036000830152610cf78187610c14565b9050610d066020830186610c57565b610d1360408301856109f9565b610d206060830184610cce565b95945050505050565b7f5a65726f2076616c696461746f72000000000000000000000000000000000000600082015250565b6000610d5f600e83610bc8565b9150610d6a82610d29565b602082019050919050565b60006020820190508181036000830152610d8e81610d52565b9050919050565b7f4e6f742076616c696461746f7200000000000000000000000000000000000000600082015250565b6000610dcb600d83610bc8565b9150610dd682610d95565b602082019050919050565b60006020820190508181036000830152610dfa81610dbe565b9050919050565b600081905092915050565b82818337600083830152505050565b6000610e278385610e01565b9350610e34838584610e0c565b82840190509392505050565b6000819050919050565b610e5b610e56826109ef565b610e40565b82525050565b6000610e6e82898b610e1b565b9150610e7b828789610e1b565b9150610e88828587610e1b565b9150610e948284610e4a565b60208201915081905098975050505050505050565b7f4e487b7100000000000000000000000000000000000000000000000000000000600052604160045260246000fd5b7f4e487b7100000000000000000000000000000000000000000000000000000000600052602260045260246000fd5b60006002820490506001821680610f1f57607f821691505b602082108103610f3257610f31610ed8565b5b50919050565b60008190508160005260206000209050919050565b60006020601f8301049050919050565b600082821b905092915050565b600060088302610f9a7fffffffffffffffffffffffffffffffffffffffffffffffffffffffffffffffff82610f5d565b610fa48683610f5d565b95508019841693508086168417925050509392505050565b6000819050919050565b6000610fe1610fdc610fd7846109ef565b610fbc565b6109ef565b9050919050565b6000819050919050565b610ffb83610fc6565b61100f61100782610fe8565b848454610f6a565b825550505050565b600090565b611024611017565b61102f818484610ff2565b505050565b5b818110156110535761104860008261101c565b600181019050611035565b5050565b601f8211156110985761106981610f38565b61107284610f4d565b81016020851015611081578190505b61109561108d85610f4d565b830182611034565b50505b505050565b600082821c905092915050565b60006110bb6000198460080261109d565b1980831691505092915050565b60006110d483836110aa565b9150826002028217905092915050565b6110ed82610bbd565b67ffffffffffffffff81111561110657611105610ea9565b5b6111108254610f07565b61111b828285611057565b600060209050601f83116001811461114e576000841561113c578287015190505b61114685826110c8565b8655506111ae565b601f19841661115c86610f38565b60005b828110156111845784890151825560018201915060208501945060208101905061115f565b868310156111a1578489015161119d601f8916826110aa565b8355505b6001600288020188555050505b505050505050565b60006111c28385610bc8565b93506111cf838584610e0c565b6111d883610c03565b840190509392505050565b600060608201905081810360008301526111fe8186886111b6565b905061120d6020830185610c57565b61121a60408301846109f9565b95945050505050565b7f6e6f7420666f756e640000000000000000000000000000000000000000000000600082015250565b6000611259600983610bc8565b915061126482611223565b602082019050919050565b600060208201905081810360008301526112888161124c565b9050919050565b7f4f776e61626c653a206e6577206f776e657220697320746865207a65726f206160008201527f6464726573730000000000000000000000000000000000000000000000000000602082015250565b60006112eb602683610bc8565b91506112f68261128f565b604082019050919050565b6000602082019050818103600083015261131a816112de565b9050919050565b7f4f776e61626c653a2063616c6c6572206973206e6f7420746865206f776e6572600082015250565b6000611357602083610bc8565b915061136282611321565b602082019050919050565b600060208201905081810360008301526113868161134a565b9050919050565b7f496e76616c6964206d6574616461746100000000000000000000000000000000600082015250565b60006113c3601083610bc8565b91506113ce8261138d565b602082019050919050565b600060208201905081810360008301526113f2816113b6565b9050919050565b7f4e487b7100000000000000000000000000000000000000000000000000000000600052601160045260246000fd5b6000611433826109ef565b915061143e836109ef565b9250828201905080821115611456576114556113f9565b5b9291505056fea2646970667358221220d7aa478315ec15dee4fac6ee9eb3338af698b23947ffac9b1c758fc37935d83064736f6c634300081c0033",
  "linkReferences": {},
  "deployedLinkReferences": {}
}